:060000000A128A110C280F
:10000800FE00030EF0000A08F1000A128A11932E6E
:100018000A128A110F28FA01FB0183132030840089
:100028004B300A128A111B270A128A1183010A12FD
:100038008A111E280A128A1107250A128A110A1221
:100048008A11A4230A128A110A128A11E5260A12B1
:100058008A117B08031D3128322842282330F200F8
:1000680037300A128A1123260A128A110A128A11B3
:100078004F260A128A11FB01FB0A6B287B03031D1A
:100088004628472857282530F20033300A128A11AB
:1000980023260A128A110A128A114F260A128A1175
:1000A8000230FB006B2802307B06031D5C285D28AC
:1000B8006B282730F20047300A128A1123260A12C9
:1000C8008A110A128A114F260A128A11FB010A1292
:1000D8008A1112270A128A116030F2000030F300E8
:1000E8000A128A11FF260A128A117A088312031348
:1000F800DE00DF015E08F2005F08F3000A128A11D1
:10010800FF260A128A110A128A1109270A128A116D
:10011800043083120313E0000C30DF003330DE00BC
:10012800DE0B9428DF0B9428E00B94280A128A111E
:1001380012270A128A116130F2000030F3000A1205
:100148008A11FF260A128A110030F200F3000A12FF
:100158008A11F5250A128A11730883120313AD0058
:100168007208AC000A128A1109270A128A1104308F
:1001780083120313E0000C30DF003330DE00DE0BA7
:10018800C328DF0BC328E00BC3280A128A111227E1
:100198000A128A117030F2000030F3000A128A1134
:1001A800FF260A128A11831203133108DE00DF01C9
:1001B8005E08F2005F08F3000A128A11FF260A128D
:1001C8008A110A128A1109270A128A110430831225
:1001D8000313E0000C30DF003330DE00DE0BF228C2
:1001E800DF0BF228E00BF2280A128A1112270A12F2
:1001F8008A117130F2000030F3000A128A11FF26CA
:100208000A128A110030F200F3000A128A11F52549
:100218000A128A11730883120313AB007208AA002A
:100228000A128A1109270A128A1104308312031349
:10023800E0000C30DF003330DE00DE0B2129DF0B5D
:100248002129E00B21290A128A1112270A128A1180
:100258005030F2000030F3000A128A11FF260A1209
:100268008A117A0883120313DE00DF015E08F200A8
:100278005F08F3000A128A11FF260A128A110A126D
:100288008A1109270A128A11043083120313E00025
:100298000C30DF003330DE00DE0B5029DF0B502935
:1002A800E00B50290A128A1112270A128A115130BA
:1002B800F2000030F3000A128A11FF260A128A118E
:1002C8000030F200F3000A128A11F5250A128A1189
:1002D800730883120313AF007208AE000A128A1162
:1002E80009270A128A11043083120313E0000C3024
:1002F800DF003330DE00DE0B7F29DF0B7F29E00BC8
:100308007F291C3083120313D1002F08D3002E0835
:10031800D2003B300A128A1160220A128A111C305C
:1003280083120313D1002D08D3002C08D2003730D4
:100338000A128A1160220A128A111C3083120313CE
:10034800D1002B08D3002A08D20033300A128A11B0
:1003580060220A128A11203083120313D1002F0859
:10036800D3002E08D20047300A128A1160220A12DE
:100378008A11203083120313D1002D08D3002C08D2
:10038800D20043300A128A1160220A128A112030E0
:1003980083120313D1002B08D3002A08D2003F3060
:1003A8000A128A1160220A128A110A128A11E52693
:1003B8000A128A11F601F60A01300A128A11732606
:1003C8000A128A111130F6008030F7000A128A11D9
:1003D800C3240A128A110830F60001300A128A1161
:1003E80073260A128A111730F6008030F7000A12B5
:1003F8008A11C3240A128A110E30F60001300A123B
:100408008A1173260A128A110B30F6008030F70021
:100418000A128A11C3240A128A11F601F60A023056
:100428000A128A1173260A128A114730F600003020
:10043800F7000A128A11C3240A128A110830F6003A
:1004480002300A128A1173260A128A114330F60002
:100458000030F7000A128A11C3240A128A110E30DA
:10046800F60002300A128A1173260A128A113F30E6
:10047800F6000030F7000A128A11C3240A128A1102
:10048800023083120313E0000430DF00B930DE00CD
:10049800DE0B4C2ADF0B4C2AE00B4C2A532AFA01BC
:1004A800013083120313DE005E08B0072E088500B2
:1004B8002D280A128A110C2883120313DC005230EB
:1004C800D700272B25305D0603196B2A6C2A762A5C
:1004D8005C0884005D08831380000130D400540850
:1004E800DC07272BD8010130D107FF3051078400E2
:1004F8000A128A118F250A128A11DD00D400D5014B
:100508005508003A0319892A272B5408003A031979
:10051800372B643A0319942A0D3A0319942A272B86
:100528005708840083130008DA00840A0008DB00F7
:100538000230D4005408D707DB1FA32AA42AAD2A07
:100548000330D4005408D804DA09DB09DA0A03199D
:10055800DB0ADD01DD0A5D08D4005407013E840092
:100568000A128A118F250A128A11D5000A128A11D5
:100578008F250A128A11D60056085B02031DC62A67
:1005880055085A020318C92ACA2ACB2AD52A013083
:10059800D4005408DD0705305D06031DD42AD52A8A
:1005A800AF2A580803390319DA2ADB2AE42A5C0837
:1005B80084002D30831380000130D4005408DC07F8
:1005C8005D08D9001E2B0A30CB000030CC0059083A
:1005D800D4005407013E84000A128A118F250A129A
:1005E8008A11F2000A128A118F250A128A11F30061
:1005F8005B08F5005A08F4000A128A117F240A12CF
:100608008A11730883120313CE007208CD000A12F0
:100618008A1149250A128A11831203134B08303EA6
:10062800DD005C0884005D08831380000130D4007D
:100638005408DC07FF30D4005408D907590A031DB1
:10064800262B272BE72A0130D107FF3051078400DA
:100658000A128A118F250A128A11DD005D08031D0E
:10066800362B372B662A5C08840083138001080028
:10067800003083120313CF000030CE000030CD00CD
:100688000030CC00750874047304720403194D2BF0
:100698004E2B9B2BD001D00A5E2B0130CB000310D0
:1006A800F20DF30DF40DF50DCB0B532B0130CB00F0
:1006B8004B08D007F51F612B622B512B0130CB0063
:1006C8000310CC0DCD0DCE0DCF0DCB0B642B7508C3
:1006D8007902031D792B74087802031D792B73089E
:1006E8007702031D792B72087602031C7C2B7D2B65
:1006F8008C2B7208F6027308031C730FF702740838
:10070800031C740FF8027508031C750FF9024C14CA
:1007180001300310F50CF40CF30CF20CFF3E031D32
:100728008D2B0130D002031D9A2B9B2B622B4F0877
:10073800F5004E08F4004D08F3004C08F2000800DC
:1007480000300A128A1123270A128A113430F7005E
:10075800F130F600F60BAE2BF70BAE2BB32B303087
:100768000A128A11B3260A128A110D30F700FB30DB
:10077800F600F60BBD2BF70BBD2BC22B30300A123F
:100788008A11B3260A128A111D30F7009130F6003B
:10079800F60BCC2BF70BCC2B30300A128A11B32670
:1007A8000A128A113C300A128A11B3260A128A11D7
:1007B8000C300A128A11B3260A128A1101300A1261
:1007C8008A11B3260A128A1106300A128A11B32630
:1007D8000A128A110800831603139A018316031755
:1007E8008711831203131816981718138316031307
:1007F8008C16831203138C12B0307206043003195E
:100808007306031D082C092C0E2C6730831603135E
:100818009900382C60307206093003197306031DDD
:10082800162C172C1C2C3330831603139900382CE4
:1008380080307206253003197306031D242C252CDD
:100848002A2C0C30831603139900382CB130720609
:10085800283003197306031D322C332C382C0B3027
:10086800831603139900382C0800831603131811F4
:100878008316031787118316031318129816831209
:1008880003130C12B0307206043003197306031DEB
:100898004E2C4F2C542C67308316031399007E2C52
:1008A80060307206093003197306031D5C2C5D2C39
:1008B800622C33308316031399007E2C8030720625
:1008C800253003197306031D6A2C6B2C702C0C3011
:1008D8008316031399007E2CB13072062830031951
:1008E8007306031D782C792C7E2C0B30831603138A
:1008F80099007E2C0800F701F801720873040319A7
:10090800862C872CBE2CF901F90A952C013003108E
:10091800F20DF30DFF3E031D8B2C0130F600760817
:10092800F907F31F982C992C8A2C01300310F70D26
:10093800F80DFF3E031D9A2C73087502031DA62CA3
:1009480072087402031CA92CAA2CB12C7208F40298
:100958007308031CF503F502771401300310F30C38
:10096800F20CFF3E031DB22C0130F902031DBD2C11
:10097800BE2C992C7808F3007708F2000800F801DB
:10098800F901E82C78087607CC007708CB00031823
:10099800CB0AF81FD02CCB03831203134B08CD00CE
:1009A8004D08FF004C0884000A128A1185250A1296
:1009B8008A110A128A11CD260A128A110130F80703
:1009C8000318F90A0030F907780876078312031329
:1009D800CC007708CB000318CB0AF81FF42CCB0304
:1009E800831203134B08CD004D08FF004C08840008
:1009F8000A128A1185250A128A11003A031D052D4B
:100A0800062DC62C08008316031788018901831652
:100A180003138501FF308600C030870088018901F3
:100A280083120313850186018701880189018316D2
:100A380003138113FF30960070308F040F140B10CE
:100A48008B158B170B178030F2002530F3000A1234
:100A58008A11EF230A128A118030F2002530F30040
:100A68000A128A1139240A128A11003083120313D8
:100A7800D4000130D3008630D200A030D1000A1251
:100A88008A11BD250A128A110800831203134B0824
:100A98004C040319502D512D802DD001D00A5F2D03
:100AA80001300310CB0DCC0DFF3E031D552D013039
:100AB800CF004F08D007CC1F622D632D542D4C0852
:100AC8004E02031D692D4B084D02031C6C2D6D2D24
:100AD800732D4B08CD024C08031CCE03CE02013007
:100AE8000310CC0CCB0CFF3E031D742D0130D0023B
:100AF800031D7F2D802D632D4E08CC004D08CB00A3
:100B08000800FF1B8F2D83137F1883170008840AA2
:100B18000319FF0A080005308A000408840A8207BE
:100B28000034013400340A34003464340034E834C6
:100B380003341034273449346E34663472346134E3
:100B4800003455346C3474347234613400344634AF
:100B58006F3474346F340034253464340D34003405
:100B68002534643400346634003469340034753410
:100B78000034283083120313940083160313910161
:100B8800831203135108D5005208D6005308D70022
:100B98005408D80002300310D50DD60DD70DD80D46
:100BA800FF3E031DCF2D5808F5005708F4005608DE
:100BB800F3005508F2000030F9007A30F8001230DE
:100BC800F7000030F6000A128A113C230A128A1133
:100BD8007208FF3E831603139300940187150716C6
:100BE80008000A128A11F2260A128A1183160313C0
:100BF80091150A128A11F2260A128A118312031316
:100C08001308F400F5017408F6007508F7000A12D5
:100C18008A11F2260A128A1172037304031D152E13
:100C2800162E1A2E8316031391121D2E83160313E4
:100C3800911611167708F3007608F2000800F500FF
:100C48007508F4002B2E0130F3007308F4077408BC
:100C5800840083130008031D322E332E272E3C2ECA
:100C68000130F3007308F4070130F3007308F2074A
:100C7800720884000A128A118F250A128A11F30059
:100C880074088400730880000008031D4C2E4D2E44
:100C9800342E75080800F500F301F401672E83125D
:100CA80003130C1E582E592E532E73087507F20085
:100CB800720884008313000899000130F3070318B1
:100CC800F40A0030F40773087507F200720884000C
:100CD80083130008031D712E722E532E0800F7008F
:100CE8007703031D782E792E832E76087F3EF80031
:100CF80078080A128A11B3260A128A11922E023033
:100D08007706031D882E892E922E7608BF3EF8009E
:100D180078080A128A11B3260A128A110800831267
:100D280003138C1E982E992E9B2E1A08B2000B1CAA
:100D38009E2E9F2EAC2E0618A22EA32EAB2E061C7E
:100D4800A62EA72EA32EFF30FA00FF30B1000B10FD
:100D580071088A00700E8300FE0E7E0E0900F500F1
:100D680083120313091075080A128A1123270A121D
:100D78008A118312031389140B30F4006230F300D4
:100D8800F30BC42EF40BC42E000083120313891036
:100D98000800F5007508F400831203130914740899
:100DA8000A128A1123270A128A118312031389143B
:100DB8001A30F300F30BDE2E0000831203138910A0
:100DC800080000300A128A11B3260A128A1101306B
:100DD8000A128A11B3260A128A110800831603130D
:100DE8001419F72EF82EF22E11081F39031DFD2EA7
:100DF800FE2EF22E08000A128A11F2260A128A1111
:100E0800720883120313930008000A128A11F2264B
:100E18000A128A1183160313111508000A128A117F
:100E2800F2260A128A1183160313111408006400AB
:100E38008001840A04060319003404061C2FF200FA
:0A0E480072088312031388000800EB
:08400000FF3FFF3FFF3FFF3FC0
:04400E00D420FF3F7C
:00000001FF
