:060000000A128A110C280F
:10000800FE00030EF0000A08F1000A128A114B2DB7
:100018000A128A110F2883132030840041300A12F3
:100028008A11B3250A128A1183010A128A111C281F
:100038000A128A11E4240A128A110A128A113F2329
:100048000A128A110A128A117D250A128A110A12C5
:100058008A11AA250A128A116030F2000030F300D2
:100068000A128A1197250A128A1183120313280883
:10007800D200D3015208F2005308F3000A128A1181
:1000880097250A128A110A128A11A1250A128A11C1
:10009800023083120313D4000430D300B930D200E5
:1000A800D20B5428D30B5428D40B54285B280A129B
:1000B8008A11AA250A128A116130F2000030F30071
:1000C8000A128A1197250A128A110030F200F300E9
:1000D8000A128A11B6240A128A11730883120313AA
:1000E800A3007208A2000A128A11A1250A128A1115
:1000F800023083120313D4000430D300B930D20085
:10010800D20B8428D30B8428D40B84288B280A127A
:100118008A11AA250A128A117030F2000030F30001
:100128000A128A1197250A128A11831203132708C3
:10013800D200D3015208F2005308F3000A128A11C0
:1001480097250A128A110A128A11A1250A128A1100
:10015800023083120313D4000430D300B930D20024
:10016800D20BB428D30BB428D40BB428BB280A125A
:100178008A11AA250A128A117130F2000030F300A0
:100188000A128A1197250A128A110030F200F30028
:100198000A128A11B6240A128A11730883120313E9
:1001A800A1007208A0000A128A11A1250A128A1158
:1001B800023083120313D4000430D300B930D200C4
:1001C800D20BE428D30BE428D40BE428EB280A123A
:1001D8008A11AA250A128A115030F2000030F30061
:1001E8000A128A1197250A128A1183120313280802
:1001F800D200D3015208F2005308F3000A128A1100
:1002080097250A128A110A128A11A1250A128A113F
:10021800023083120313D4000430D300B930D20063
:10022800D20B1429D30B1429D40B14291B290A1215
:100238008A11AA250A128A115130F2000030F300FF
:100248000A128A1197250A128A110030F200F30067
:100258000A128A11B6240A128A1173088312031328
:10026800A5007208A4000A128A11A1250A128A118F
:10027800023083120313D4000430D300B930D20003
:10028800D20B4429D30B4429D40B44294B291C30C5
:1002980083120313C5002508C7002408C600393097
:1002A8000A128A11FB210A128A111C3083120313C5
:1002B800C5002308C7002208C60031300A128A1177
:1002C800FB210A128A111C3083120313C50021086E
:1002D800C7002008C60029300A128A11FB210A1219
:1002E8008A110A128A117D250A128A11F601F60A64
:1002F80001300A128A1111250A128A111130F600EA
:100308008030F7000A128A118A230A128A110830EB
:10031800F60001300A128A1111250A128A111730C3
:10032800F6008030F7000A128A118A230A128A110D
:100338000E30F60001300A128A1111250A128A11AC
:100348000B30F6008030F7000A128A118A230A124D
:100358008A11F601F60A02300A128A1111250A12C8
:100368008A113930F6000030F7000A128A118A2300
:100378000A128A110830F60002300A128A11112571
:100388000A128A113130F6000030F7000A128A1179
:100398008A230A128A110E30F60002300A128A11D4
:1003A80011250A128A112930F6000030F7000A12C6
:1003B8008A118A230A128A11043083120313D40083
:1003C8000C30D3003330D200D20BE829D30BE82904
:1003D800D40BE82983120313A8010130D200520874
:1003E800A607240885002B280A128A110C288312D4
:1003F8000313D0004630CB00C22A2530510603191A
:10040800062A072A112A50088400510883138000FD
:100418000130C8004808D007C22ACC010130C507FE
:10042800FF30450784000A128A1192240A128A11A1
:10043800D100C800C9014908003A0319242AC22A70
:100448004808003A0319D22A643A03192F2A0D3AA8
:1004580003192F2AC22A4B08840083130008CE00F0
:10046800840A0008CF000230C8004808CB07CF1F15
:100478003E2A3F2A482A0330C8004808CC04CE093F
:10048800CF09CE0A0319CF0AD101D10A5108C800F1
:100498004807013E84000A128A1192240A128A111E
:1004A800C9000A128A1192240A128A11CA004A083B
:1004B8004F02031D612A49084E020318642A652A5F
:1004C800662A702A0130C8004808D107053051064D
:1004D800031D6F2A702A4A2A4C0803390319752A02
:1004E800762A7F2A500884002D308313800001303B
:1004F800C8004808D0075108CD00B92A0A30C10001
:100508000030C2004D08C8004807013E84000A12A6
:100518008A1192240A128A11F2000A128A1192246C
:100528000A128A11F3004F08F5004E08F4000A1267
:100538008A11D0230A128A11730883120313C40084
:100548007208C3000A128A1114240A128A1183122B
:1005580003134108303ED10050088400510883132A
:1005680080000130C8004808D007FF30C80048089C
:10057800CD074D0A031DC12AC22A822A0130C507A8
:10058800FF30450784000A128A1192240A128A1140
:10059800D1005108031DD12AD22A012A500884000B
:1005A800831380010800003083120313C400003055
:1005B800C3000030C2000030C10075087404730421
:1005C80072040319E82AE92A362BC501C50AF92A53
:1005D8000130FA000310F20DF30DF40DF50DFA0BCE
:1005E800EE2A0130FA007A08C507F51FFC2AFD2A11
:1005F800EC2A0130FA000310C10DC20DC30DC40D61
:10060800FA0BFF2A75087902031D142B7408780267
:10061800031D142B73087702031D142B720876022E
:10062800031C172B182B272B7208F6027308031CC0
:10063800730FF7027408031C740FF8027508031C83
:10064800750FF902411401300310F50CF40CF30C8A
:10065800F20CFF3E031D282B0130C502031D352B6C
:10066800362BFD2A4408F5004308F4004208F3003D
:100678004108F200080000300A128A11BB250A124C
:100688008A113430F700F130F600F60B492BF70BDE
:10069800492B4E2B30300A128A1131250A128A1141
:1006A8000D30F700FB30F600F60B582BF70B582BE4
:1006B8005D2B30300A128A1131250A128A111D3039
:1006C800F7009130F600F60B672BF70B672B3030ED
:1006D8000A128A1131250A128A113C300A128A112B
:1006E80031250A128A110C300A128A1131250A1290
:1006F8008A1101300A128A1131250A128A1106302C
:100708000A128A1131250A128A110800831203136A
:10071800C101C201B32B41087607F9007708F80038
:100728000318F80AC11F992BF8037808FA007A0809
:1007380083120313FF00790884000A128A1188249F
:100748000A128A110A128A1165250A128A110130C1
:1007580083120313C1070318C20A0030C2074108F5
:100768007607F9007708F8000318F80AC11FBD2BAF
:10077800F8037808FA007A0883120313FF0079084F
:1007880084000A128A1188240A128A11003A031D69
:10079800CE2BCF2B8F2B0800F701F80172087304BA
:1007A8000319D72BD82B0F2CF901F90AE62B0130A6
:1007B8000310F20DF30DFF3E031DDC2B0130F60094
:1007C8007608F907F31FE92BEA2BDB2B013003101E
:1007D800F70DF80DFF3E031DEB2B73087502031D83
:1007E800F72B72087402031CFA2BFB2B022C7208DD
:1007F800F4027308031CF503F502771401300310A3
:10080800F30CF20CFF3E031D032C0130F902031D0B
:100818000E2C0F2CEA2B7808F3007708F20008005A
:10082800831203134108420403191B2C1C2C4B2C64
:10083800FB01FB0A2A2C01300310C10DC20DFF3E3B
:10084800031D202C0130FA007A08FB07C21F2D2C4B
:100858002E2C1F2C42084402031D342C410843024D
:10086800031C372C382C3E2C4108C3024208031CB9
:10087800C403C40201300310C20CC10CFF3E031DA7
:100888003F2C0130FB02031D4A2C4B2C2E2C440814
:10089800C2004308C10008002830831203139400E3
:1008A800831603139101831203134608CA004708ED
:1008B800CB004808CC004908CD0002300310CA0D0F
:1008C800CB0DCC0DCD0DFF3E031D622C4D08F50060
:1008D8004C08F4004B08F3004A08F2000030F90015
:1008E8007A30F8001230F7000030F6000A128A1148
:1008F800D7220A128A117208FF3E83160313930047
:100908009401871507160800FF1B922C83137F1884
:1009180083170008840A0319FF0A080004308A00B4
:100928000408840A82070034013400340A3400348D
:1009380064340034E83403341034273449346E34D2
:10094800663472346134003455346C34743472341F
:100958006134003446346F3474346F3400342534D1
:10096800643400340A128A118A250A128A118316FD
:10097800031391150A128A118A250A128A11831201
:1009880003131308F400F5017408F6007508F7005E
:100998000A128A118A250A128A1172037304031D26
:1009A800D62CD72CDB2C831603139112DE2C83163E
:1009B8000313911611167708F3007608F200080061
:1009C8008316031788018901831603138501FF30F5
:1009D8008600880189018312031385018601880135
:1009E8008901831603138113FF30960070308F043A
:1009F8000F140B108B158B170B1700308312031372
:100A0800C9000130C8008630C700A030C6000A12ED
:100A18008A1150240A128A110800F7007703031D6F
:100A2800162D172D212D76087F3EF80078080A121A
:100A38008A1131250A128A11302D02307706031DDA
:100A4800262D272D302D7608BF3EF80078080A128B
:100A58008A1131250A128A110800F500831203133E
:100A6800091075080A128A11BB250A128A11831205
:100A7800031389140B30F4006230F300F30B422D9A
:100A8800F40B422D000083120313891008000B1C7D
:100A98004E2D4F2D5E2D831203130618542D552D00
:100AA8005D2D061C582D592D552DFF30A800FF30FF
:100AB800A7000B1071088A00700E8300FE0E7E0ED0
:100AC8000900F5007508F40083120313091474086B
:100AD8000A128A11BB250A128A1183120313891478
:100AE8001A30F300F30B762D0000831203138910DC
:100AF800080000300A128A1131250A128A110130C1
:100B08000A128A1131250A128A1108008316031362
:100B180014198F2D902D8A2D11081F39031D952D1D
:100B2800962D8A2D08000A128A118A250A128A111E
:100B3800720883120313930008000A128A118A2587
:100B48000A128A1183160313111508000A128A1152
:100B58008A250A128A1183160313111408006400E7
:100B68008001840A0406031900340406B42DF20037
:0A0B780072088312031388000800BE
:08400000FF3FFF3FFF3FFF3FC0
:04400E00D420FF3F7C
:00000001FF
