:060000000A128A110C280F
:10000800FE00030EF1000A08F2000A128A11942871
:100018000A128A110F28F901FA0183120313B00199
:10002800B101B201B301B401B501B601B701B8011C
:10003800B901BA01BB01BC01BD01BE0183010A12AD
:100048008A112628F801F80A0A128A1185210A124B
:100058008A110A128A11BC210A128A110A128A11FB
:10006800F3200A128A11831203132408C0002308FC
:10007800BF0000304002063003193F02031845282C
:1000880046285E287803031D4A284B285D28F80176
:1000980006148610023083120313AF004530AE00F9
:1000A800A930AD00AD0B5628AE0B5628AF0B56281D
:1000B8005E2886017808031D622863288228831237
:1000C8000313080A031D69286A287E280610861467
:1000D8000130AD002D088807023083120313AF00EA
:1000E8004530AE00A930AD00AD0B7828AE0B7828AE
:1000F800AF0B78288312031306108610063083127C
:100108000313AF001330AE00AD30AD00AD0B8A283D
:10011800AE0B8A28AF0B8A2832280A128A110C28BB
:10012800831203138C1D99289A28EC281412141B87
:100138009E289F28A328941FA228A328A82813082C
:10014800FA0014139413141683160313941AAD2883
:10015800AE28CA281419B128B228CA288312031352
:100168001308FA008C11141683160313141CBD28E7
:10017800BE28B828831203131308F90079088800E9
:10018800A630F000F00BC6280000E928941ACD2804
:10019800CE28E928141DD128D228E9288312031370
:1001A8001308FA00831603131410831203133F086D
:1001B80093001416A630F000F00BE0280000831618
:1001C80003131418E828E928E328831203138C1171
:1001D80072088A00710E8300FE0E7E0E09008312DB
:1001E80003130514053083120313A500A50BFA2881
:1001F800FD28831203130510851C032904290029EF
:100208001014851808290929052910100F08A800B5
:100218000E08A7002808A6002708A5000310A60CAA
:10022800A50C2508AB002608AC005A302C02A130DA
:1002380003192B0203182129222936293A30F30001
:100248000030F4002C08F6002B08F5000A128A1179
:100258003F210A128A11740883120313AA00730833
:10026800A9003829A901AA018E018F012A08A40032
:100278002908A300080083120313A101A20173082F
:1002880074040319482949298029A001A00A57297B
:1002980001300310F30DF40DFF3E031D4D2901300D
:1002A800F7007708A007F41F5A295B294C29013069
:1002B8000310A10DA20DFF3E031D5C2974087602F0
:1002C800031D682973087502031C6B296C2973299F
:1002D8007308F5027408031CF603F60221140130B2
:1002E8000310F40CF30CFF3E031D74290130A00227
:1002F800031D7F2980295B292208F4002108F300C7
:100308000800831603178801890102308316031336
:1003180085008601880189018312031385018601FE
:10032800880189017030831603138F040F1450302D
:100338000A128A11A2210A128A110800F30073080E
:10034800831603139300363083120313940080300E
:1003580083160313940001309100871507168B1735
:100368000B17831203138C11831603138C150800C3
:10037800CF3083120313900590108E018F01101057
:0203880008006B
:08400000FF3FFF3FFF3FFF3FC0
:04400E00D420FF3F7C
:00000001FF
