:060000000A128A110C280F
:10000800FE00030EF1000A08F2000A128A11952870
:100018000A128A110F28F901FA0183120313B00199
:10002800B101B201B301B401B501B601B701B8011C
:10003800B901BA01BB01BC01BD01BE0183010A12AD
:100048008A112628F801F80A0A128A1186210A124A
:100058008A110A128A11BD210A128A110A128A11FA
:10006800F4200A128A11831203132408C0002308FB
:10007800BF00003040020B3003193F020318452827
:1000880046285E287803031D4A284B285D28F80176
:1000980006148610023083120313AF004530AE00F9
:1000A800A930AD00AD0B5628AE0B5628AF0B56281D
:1000B8005E2886017808031D622863288328831236
:1000C8000313080A031D69286A287F280610861466
:1000D8000130AD002D088807023083120313AF00EA
:1000E8008630AE009830AD00AD0B7828AE0B78287E
:1000F800AF0B782800008312031306108610063011
:1001080083120313AF001330AE00AD30AD00AD0B5A
:100118008B28AE0B8B28AF0B8B2832280A128A113A
:100128000C28831203138C1D9A289B28ED2814127F
:10013800141B9F28A028A428941FA328A428A92812
:100148001308FA0014139413141683160313941A3D
:10015800AE28AF28CB281419B228B328CB2883128D
:1001680003131308FA008C11141683160313141CB6
:10017800BE28BF28B928831203131308F900790889
:100188008800A630F000F00BC7280000EA28941A6F
:10019800CE28CF28EA28141DD228D328EA2883128B
:1001A80003131308FA00831603131410831203139E
:1001B8003F0893001416A630F000F00BE128000069
:1001C800831603131418E928EA28E4288312031372
:1001D8008C1172088A00710E8300FE0E7E0E0900D3
:1001E800831203130514053083120313A500A50B0E
:1001F800FB28FE28831203130510851C04290529F2
:1002080001291014851809290A29062910100F0830
:10021800A8000E08A7002808A6002708A5000310B4
:10022800A60CA50C2508AB002608AC005A302C02F9
:10023800A13003192B0203182229232937293A3020
:10024800F3000030F4002C08F6002B08F5000A1221
:100258008A1140210A128A11740883120313AA0012
:100268007308A9003929A901AA018E018F012A085A
:10027800A4002908A300080083120313A101A20106
:1002880073087404031949294A298129A001A00A7D
:10029800582901300310F30DF40DFF3E031D4E29BC
:1002A8000130F7007708A007F41F5B295C294D2966
:1002B80001300310A10DA20DFF3E031D5D29740836
:1002C8007602031D692973087502031C6C296D29C0
:1002D80074297308F5027408031CF603F602211446
:1002E80001300310F40CF30CFF3E031D7529013097
:1002F800A002031D802981295C292208F400210815
:10030800F300080083160317880189010230831659
:10031800031385008601880189018312031385016F
:100328008601880189017030831603138F040F1426
:1003380050300A128A11A3210A128A110800F30008
:100348007308831603139300363083120313940043
:100358008030831603139400013091008715071627
:100368008B170B17831203138C11831603138C1529
:100378000800CF3083120313900590108E018F016F
:040388001010080049
:08400000FF3FFF3FFF3FFF3FC0
:04400E00D420FF3F7C
:00000001FF
