:060000000A128A110C280F
:10000800FE00030EF1000A08F2000A128A152E2CCF
:100018000A128A110F28F801F901FA0183135C30DA
:10002800840067300A128A11EE270A128A11A0305A
:100038008400AF300A128A11EE270A128A1183014E
:100048000A128A11FE2D831203132D088039B70076
:100058002D08B2003207BD00AC1F332834283528DC
:100068003D143D08031939283A2849283D0A031D3B
:100078003E283F2847280030AD000030AC00003053
:10008800AB000030AA00AC1751280030AD0000309A
:10009800AC000030AB000030AA0031088039B20053
:1000A8003208B7063108B2003207BC00B01F5D281D
:1000B8005E285F283C143C080319632864287328C9
:1000C8003C0A031D6828692871280030B1000030F7
:1000D800B0000030AF000030AE00B0177B28003011
:1000E800B1000030B0000030AF000030AE003C0876
:1000F80003197F28802885283D08031D8428852822
:100108008E280030AD000030AC000030AB0000306D
:10011800AA006B2B2A08F30030080A128A15472315
:100128000A128A11740883120313C3007308C200E9
:100138004208B200B301B401B5013508BB00340868
:10014800BA003308B9003208B8004308B200B30156
:10015800B401B5013508C1003408C0003308BF0038
:100168003208BE002B08F3002F080A128A1547230D
:100178000A128A11740883120313C3007308C20099
:100188004208B200B301B401B5013208B807330818
:1001980003110318013E0319D228B90734080311C3
:1001A8000318013E0319D928BA07350803110318A3
:1001B800013E0319E028BB074308B200B301B401AC
:1001C800B5013208BE07330803110318013E0319AD
:1001D800EE28BF07340803110318013E0319F52858
:1001E800C007350803110318013E0319FC28C1078D
:1001F8002C08F3002E080A128A1547230A128A11BE
:10020800740883120313C3007308C2004208B200C3
:10021800B301B401B5013208B80733080311031854
:10022800013E03191829B907340803110318013EC0
:1002380003191F29BA07350803110318013E0319CA
:100248002629BB074308B200B301B401B50132083F
:10025800BE07330803110318013E03193429BF07E9
:10026800340803110318013E03193B29C007350858
:1002780003110318013E03194229C1070830B200CF
:100288000310B80DB90DBA0DBB0DB20B44292B08DC
:10029800F3002E080A128A1547230A128A117408D5
:1002A80083120313C3007308C2004208B200430854
:1002B800B300B401B5013208B807330803110318B5
:1002C800013E03196829B907340803110318013ED0
:1002D80003196F29BA07350803110318013E0319DA
:1002E8007629BB072A08F3002F080A128A15472324
:1002F8000A128A11740883120313C3007308C20018
:100308004208B2004308B300B401B5013208B80787
:10031800330803110318013E03199329B907340858
:1003280003110318013E03199A29BA073508031166
:100338000318013E0319A129BB070830B2000310B6
:10034800B80DB90DBA0DBB0DB20BA3292A08F300DD
:100358002E080A128A1547230A128A117408831272
:100368000313C3007308C2004208B2004308B30075
:10037800B401B5013208B807330803110318013E68
:100388000319C729B907340803110318013E0319D3
:10039800CE29BA07350803110318013E0319D529D8
:1003A800BB072B08F30030080A128A1547230A12E4
:1003B8008A11740883120313C3007308C200420829
:1003C800B2004308B300B401B5013208BE073308D0
:1003D80003110318013E0319F229BF07340803115A
:1003E8000318013E0319F929C0073508031103183A
:1003F800013E0319002AC1072C08F3002F080A122E
:100408008A1547230A128A11740883120313C3003A
:100418007308C2004208B2004308B300B401B50132
:100428003208BE07330803110318013E03191D2AB9
:10043800BF07340803110318013E0319242AC00713
:10044800350803110318013E03192B2AC1072C088C
:10045800F30030080A128A1547230A128A11740811
:1004680083120313C3007308C2004208B200430892
:10047800B300B401B50108300310B20DB30DB40DCB
:10048800B50DFF3E031D402A3208BE07330803118D
:100498000318013E0319512ABF0734080311031832
:1004A800013E0319582AC007350803110318013EF5
:1004B80003195F2AC1073808B2003908B3003A089F
:1004C800B4003B08B50018300310B50CB40CB30CDD
:1004D800B20CFF3E031D682A3208BE073308031119
:1004E8000318013E0319792ABF07340803110318BA
:1004F800013E0319802AC007350803110318013E7D
:100508000319872AC1070830B2000310B80DB90DC6
:10051800BA0DBB0DB20B892A3D083C07B200B301E6
:10052800B30D3208823EC20033080318013EFF3E75
:10053800C300BB2A0130B2000310BE0DBF0DC00DB1
:10054800C10DB20BA02ABB1FAA2AAB2AAC2A3E14A3
:100558000130B2000310B80DB90DBA0DBB0DB20BC6
:10056800AE2AFF30C2070318C30AFF30C307C01FF3
:10057800BE2ABF2A9E2ABC01BB1FC32AC42AE02A5E
:10058800FF303805B200FF303905B300FF303A05B7
:10059800B4007F303B05B500350834043304320419
:1005A8000319D72AD82ADB2ABC01BC0AE02A3E1C38
:1005B800DE2ADF2AE02AD82A3C080319E42AE52A99
:1005C800162B0130BE07003003180130BF0700307A
:1005D80003180130C007003003180130C107411C5F
:1005E800F62AF72A162B3E08B2003F08B300400847
:1005F800B4004108B5000130B600350DB50CB40C97
:10060800B30CB20CB60B012B3508C1003408C0007E
:100618003308BF003208BE000130C2070318C30AFE
:100628000030C3074308803AFF0080307F02031D73
:100638001F2BFF304202031C222B232B2E2B7F3033
:1006480083120313C1008030C0000030BF000030A7
:10065800BE005F2B831203134308803AFF008030EB
:100668007F02031D392B0130420203183C2B3D2B1E
:10067800492B003083120313C1000030C000003042
:10068800BF000030BE00B7015F2B8312031342087E
:10069800BD00FF30BE05FF30BF057F30C00500300C
:1006A800C1053D1C582B592B5A2BC0173D08B200C9
:1006B8000310320CC1003708B2003208C1044108E7
:1006C800AD004008AC003F08AB003E08AA00080097
:1006D800831203135308803983160313B30083125C
:1006E80003135308D400540783160313BA00831264
:1006F8000313D21F802B812B842B831603133A14E8
:10070800831603133A0803198A2B8B2B9E2B3A0A5C
:10071800031D8F2B902B9A2B003083120313D300C9
:100728000030D2000030D1000030D0008312D21740
:10073800D301A82B003083120313D3000030D2005A
:100748000030D1000030D0004F088039D400540860
:1007580083160313B306831203134F08D4005407F8
:1007680083160313BB0083120313CE1FBC2BBD2BB0
:10077800C02B831603133B14831603133B0803197A
:10078800C62BC72BDA2B3B0A031DCB2BCC2BD62B26
:10079800003083120313CF000030CE000030CD00AC
:1007A8000030CC008312CE17CF01E42B0030831227
:1007B8000313CF000030CE000030CD000030CC0055
:1007C8004F084E044D044C04031DEB2BEC2B092C55
:1007D8000030D3000030D2000030D1000030D0000B
:1007E8008030D2047F30D304831603133308831276
:1007F8000313D4005408D3045308CF005208CE0082
:100808005108CD005008CC00FD2D831603133A087B
:10081800031D0F2C102C1B2C003083120313CF0048
:100828000030CE000030CD000030CC00FD2D3A085D
:1008380083120313D400D5015508D7008316031378
:100848003B08831203135402D600031CD70356082F
:100858007F3E83160313B40083120313570803184B
:10086800013E003E83160313B50083120313530899
:1008780083160313B200831203135208831603135B
:10088800B10083120313510883160313B0008312B7
:100898000313500883160313AF00003083120313A9
:1008A800D3000030D2000030D1000030D00000303A
:1008B80083160313B9000030B8000030B7000030C9
:1008C800B600BB01ED2C3B0803196B2C6C2C9B2C40
:1008D800013083120313D400031083160313AF0DE2
:1008E800B00DB10DB20D83120313D40B702C01306F
:1008F800D4000310D00DD10DD20DD30DD40B7D2C07
:1009080083160313B91F892C8A2C8D2C8312031389
:10091800501401308312D400031083160313B60D4C
:10092800B70DB80DB90D83120313D40B902C831295
:100938004F08831603133202031DB82C83120313C6
:100948004E08831603133102031DB82C83120313B8
:100958004D08831603133002031DB82C83120313AA
:100968004C08831603132F02031CBB2CBC2CE52C4C
:100978003917831203134C0883160313AF0283122B
:1009880003134D08031C4D0FCA2CCD2C83160313DB
:10099800B002831203134E08031C4E0FD42CD72C1D
:1009A80083160313B102831203134F08031C4F0F5E
:1009B800DE2CE12C83160313B20283120313831671
:1009C8000313013083120313D4005408831603134E
:1009D800BB071A303B02031CF22CF32C672C32089D
:1009E800310430042F040319FA2CFB2C252D36145E
:1009F800252D0130D4000310D00DD10DD20DD30D0B
:100A0800D40BFF2C83160313B91F0B2D0C2D0F2DA0
:100A180083120313501401308312D4000310831679
:100A28000313B60DB70DB80DB90D83120313D40B0C
:100A3800122DFF3083160313B4070318B50AFF30CD
:100A4800B50783120313D21F2A2D2B2DFD2C8316D5
:100A58000313BB01B91F312D322D5E2DFF30360532
:100A680083120313D400FF30831603133705831250
:100A78000313D500FF3083160313380583120313BD
:100A8800D6007F3083160313390583120313D7006A
:100A980057085604550454040319532D542D592D41
:100AA80083160313BB01BB0A5E2D501C5C2D5D2D04
:100AB8005E2D542D831603133B080319642D652DF1
:100AC8009A2D013083120313D00700300318013028
:100AD800D107003003180130D20700300318013065
:100AE800D307531C782D792D9A2D5008D40051081E
:100AF800D5005208D6005308D7000130D800570D4A
:100B0800D70CD60CD50CD40CD80B832D5708D30092
:100B18005608D2005508D1005408D0000130831679
:100B28000313B4070318B50A0030B5078316031377
:100B38003508803AFF0080307F02031DA52DFF3065
:100B48003402031CA82DA92DB92DFF3083160313D9
:100B5800B4000030B500003083120313D300003016
:100B6800D2000030D1000030D000831603133508BE
:100B7800803AFF0080307F02031DC42D013034020B
:100B88000318C72DC82DD92D83160313B401B50139
:100B9800003083120313D3000030D2000030D1009C
:100BA8000030D00083160313B301831603133408EF
:100BB800BA003A1CE02DE12DE52D83120313D2175C
:100BC800EB2D7F3083120313D4005408D20583160B
:100BD80003133A0883120313D4000310540CD300F0
:100BE80083160313330883120313D4005408D30461
:100BF800002C08000A128A1520230A128A1183126F
:100C080003135D08B8005C08B700F730B90001307D
:100C1800BA001F30BB004E30BC000030BD00BE0023
:100C2800FF30BF000030C0000A128A15A0230A1244
:100C38008A11831203133808E5003708E4000030EE
:100C48006502FF3003196402031C2B2E2C2E302E54
:100C5800FF30E4000030E500003065021030031971
:100C680064020318382E392E3B2EF801F80A78034F
:100C7800031D3F2E402E5A2E0310091C031403187F
:100C8800462E4A2E8312031309144D2E8312031382
:100C980009100310891C03140318532E572E8312AE
:100CA800031389145A2E8312031389109F185D2E7B
:100CB8005E2E6B2E033083120313DA009730D900AF
:100CC800D90B642EDA0B642E831203139F1406309B
:100CD80083120313DB001330DA00AD30D900D90BCF
:100CE800732EDA0B732EDB0B732E831203139F14F0
:100CF8009F187F2E802E7C2E1E08D900DA015908F5
:100D0800F9005A08FA007908DA00D9015908F900F7
:100D18005A08FA00831603131E0883120313D90016
:100D2800DA015908F9045A08FA043B30AD00A0303A
:100D3800AC002730AB00FE30AA007908F3007A082F
:100D4800F400F501F60100300A128A1134270A125C
:100D58008A11760883120313B1007508B00074086D
:100D6800AF007308AE000A128A1127200A128A11EE
:100D7800831203132D08C7002C08C6002B08C500D2
:100D88002A08C4004030CB00A030CA000030C90097
:100D98000030C8000A128A15FC220A128A1183122E
:100DA80003134708CF004608CE004508CD00440885
:100DB800CC004230AD004330AC008030AB00D230C4
:100DC800AA007908F3007A08F400F501F60100306A
:100DD8000A128A1134270A128A1176088312031319
:100DE800B1007508B0007408AF007308AE000A12AD
:100DF8008A1127200A128A11831203132D08D3009F
:100E08002C08D2002B08D1002A08D0000A128A1117
:100E18006C230A128A11831203134F08E3004E0849
:100E2800E2004D08E1004C08E0006308F6006208A3
:100E3800F5006108F4006008F3000A128A158B2493
:100E48000A128A11760883120313DF007508DE0080
:100E58007408DD007308DC00032E0A128A110C28BE
:100E680083120313A400240803193B2F3C2F502F8F
:100E7800F61F3F2F402F502F7309A6007409A700B3
:100E88007509A8007609A900A60A0319A70A031973
:100E9800A80A0319A90A582F7608A9007508A800F6
:100EA8007408A7007308A600760875047404730410
:100EB800031D5F2F602F692F0030F6000030F5000A
:100EC8000030F4000030F300ED2F9630A500792FA4
:100ED8000130A0002008A50701300310A90CA80CB8
:100EE800A70CA60CFF3E031D712FFE302905031D1C
:100EF8007E2F7F2F6C2F9B2F0130A0002008A50785
:100F08000130A607003003180130A7070030031886
:100F18000130A807003003180130A9070130031079
:100F2800A90CA80CA70CA60CFF3E031D932FFF309D
:100F38002905031DA02FA12F802FAD2F0130A50259
:100F48000130A0000310A60DA70DA80DA90DA00B38
:100F5800A62FA81BB02FB12FB72F023025020318D8
:100F6800B62FB72FA22F2518BA2FBB2FC32FFF30AC
:100F7800A605FF30A7057F30A805FF30A905031097
:100F8800A50C2508A000A101A201A3011830031097
:100F9800A00DA10DA20DA30DFF3E031DCB2F200810
:100FA800A6042108A7042208A8042308A9042408E1
:100FB8000319DF2FE02FE52FF61FE32FE42FE52F8E
:100FC800A9172908F6002808F5002708F4002608BC
:100FD800F300080064008001840A04060319003441
:040FE8000406EF2FDD
:1015C400F300730883160313930036308312031356
:1015D4009400803083160313940001309100871522
:1015E40007168B170B17831203138C11831603131F
:1015F4008C150800803083120313C7064B08A30020
:101604004A08A2004908A1004808A0004708A7000A
:101614004608A6004508A5004408A4000A128A1535
:10162400A0250A128A15831203132308C70022086F
:10163400C6002108C5002008C4000800831603174B
:10164400880189010030F300F4000A128A1570231E
:101654000A128A158316031708140130831603131C
:1016640085008801890183120313850188010130F3
:1016740089007030831603138F040F1460300A122C
:101684008A15E2220A128A15080083120313A400A1
:10169400A001A1017308F500F6017508A2007608FF
:1016A400A300241C562B572B5D2B2208A0070318DC
:1016B400A10A2308A10701300310A20DA30DFF3EC8
:1016C400031D5E2B0310A40C2408031D6A2B6B2B33
:1016D400532B2108F4002008F30008007408803A12
:1016E400FF0080307F02031D792B0E307302031834
:1016F4007C2B7D2B892B7308F500F50DF50D8312DA
:1017040003131F087506C33975069F008D2BC3305C
:10171400831203139F05831603131F129F12831250
:1017240003131F083F3940389F00831603139F1784
:10173400831203131F14C3309F050800831203137D
:1017440039083B02A8003A08031C3A0A3C02A900E3
:10175400AA01AB0139083702A0003A08031C3A0A6F
:101764003802A100A201A3013D083F02A4003E08E3
:10177400031C3E0A4002A500A601A51BA6032608D9
:10178400A7000A128A15E6230A128A158312031384
:101794002308AF002208AE002108AD002008AC00E9
:1017A4000A128A1503250A128A15831203133D08A7
:1017B4002807C1003E0803183E0A2907C200420850
:1017C400B8004108B70008000030F7000030F60008
:1017D4000030F5000030F40083120313201CF32BB7
:1017E400F42B0B2C2408F407250803110318013EDD
:1017F4000319FD2BF507260803110318013E0319ED
:10180400042CF607270803110318013E03190B2CB7
:10181400F7070130F3000310A40DA50DA60DA70DC5
:10182400F30B0D2C01300310A30CA20CA10CA00C83
:10183400FF3E031D152C2308220421042004031D4C
:10184400242C252CEE2B7708A3007608A20075081B
:10185400A1007408A0000800831203138C1D332C0C
:10186400342C842C1412141B382C392C3D2C941F2A
:101874003C2C3D2C422C1308E6001413941314162C
:1018840083160313941A472C482C622C14194B2CDE
:101894004C2C622C831203131308E6008C111416CB
:1018A40083160313141C572C582C522C8312031325
:1018B40013088800A630F000F00B5E2C0000812C89
:1018C400941A652C662C812C141D692C6A2C812C8D
:1018D400831203131308E6008316031314108312F0
:1018E4000313640893001416A630F000F00B782C50
:1018F4000000831603131418802C812C7B2C831274
:1019040003138C1172088A00710E8300FE0E7E0E82
:1019140009000310750D760D83120313A500250825
:10192400031D952C962C9F2C0030F6000030F500FA
:101934000030F4000030F300022D7308A000740896
:10194400A1007508A2007608A3001F300310A30CA1
:10195400A20CA10CA00CFF3E031DA82C2008A4007F
:10196400F517FF30F305FF30F405FF30F5050030BF
:10197400F6059630A502A51FC02CC12CDB2C25082A
:10198400803A973E0318C72CC82CC92C962C0130DA
:101994000310F60CF50CF40CF30CFF3E031DCA2CDB
:1019A4000130A0002008A507031DD92CDA2CC92C6E
:1019B400F22C20302502031CE02CE12CED2C962C7B
:1019C4000130A0000310F30DF40DF50DF60DA00B7E
:1019D400E42C0130A5022508031DF12CF22CE22C85
:1019E40024080319F62CF72C022DF309F409F50940
:1019F400F609F30A0319F40A0319F50A0319F60A96
:101A0400080083120313B201AB1F092D0A2D172DF1
:101A1400A809A909AA09AB09A80A0319A90A03195B
:101A2400AA0A0319AB0AB201B20AAF1F1A2D1B2D61
:101A34002A2DAC09AD09AE09AF09AC0A0319AD0AE8
:101A44000319AE0A0319AF0A0130B0003008B20618
:101A54000030B6000030B5000030B4000030B300F0
:101A64002B082A04290428040319392D3A2D872D1B
:101A7400B101B10A4A2D0130B0000310A80DA90D1F
:101A8400AA0DAB0DB00B3F2D0130B0003008B107EB
:101A9400AB1F4D2D4E2D3D2D0130B0000310B30D65
:101AA400B40DB50DB60DB00B502D2B082F02031D30
:101AB400652D2A082E02031D652D29082D02031DFC
:101AC400652D28082C02031C682D692D782D280803
:101AD400AC022908031C290FAD022A08031C2A0F93
:101AE400AE022B08031C2B0FAF023314013003107A
:101AF400AB0CAA0CA90CA80CFF3E031D792D0130D8
:101B0400B102031D862D872D4E2D320803198B2D0E
:101B14008C2D972DB309B409B509B609B30A031975
:101B2400B40A0319B50A0319B60A3608AB00350816
:101B3400AA003408A9003308A8000800831203137C
:101B440023088039F3002308A8002807F500A21F02
:101B5400AC2DAD2DAE2D751475080319B22DB32D12
:101B6400C32D750A031DB72DB82DC02D0030A30059
:101B74000030A2000030A1000030A000A217A30191
:101B8400CB2D0030A3000030A2000030A1000030B3
:101B9400A00027088039F400740873060319D32DB4
:101BA400D42DD52D73172708A8002807F400A61FE5
:101BB400DC2DDD2DDE2D741474080319E22DE32DC4
:101BC400F32D740A031DE72DE82DF02D0030A70036
:101BD4000030A6000030A5000030A400A617A7011D
:101BE400FB2D0030A7000030A6000030A500003017
:101BF400A400750874020318002E012E272E731FEB
:101C0400042E052E092E8030A8002808F306750836
:101C1400F6007408F5007608F4002008F60024089D
:101C2400A0007608A4002108F6002508A100760883
:101C3400A5002208F6002608A2007608A6002308BC
:101C4400F6002708A3007608A700F6017408A80088
:101C5400A9012908AB0075082802AA00031CAB03DC
:101C64002B08803AFF0080307F02031D3B2E1A3080
:101C74002A02031C3E2E3F2E7A2E831203132308BE
:101C8400220421042004031D482E4A2E01304B2E29
:101C94000030F6000030A3000030A2000030A100A4
:101CA4000030A0007408F500802E761C5A2E5B2E9E
:101CB400642E760883120313A8000310280C01383D
:101CC400F600662E0310F60C83120313201C6B2EF1
:101CD4006C2E6D2EF6170130A800230DA30CA20C58
:101CE400A10CA00CA80B6F2E0130A8002808F50742
:101CF40074087502031C7F2E802E572E731B832EAF
:101D0400842ED12E7508031D882E892E942E003022
:101D140083120313A3000030A2000030A10000309E
:101D2400A000FF2F831203132408A0072508031122
:101D34000318013E03199F2EA10726080311031857
:101D4400013E0319A62EA207270803110318013E1A
:101D54000319AD2EA307231CB02EB12E872F761C9A
:101D6400B42EB52EBC2E7608A8000310280C01381A
:101D7400F600BE2E0310F60C201CC12EC22EC32E5C
:101D8400F6170130A800230DA30CA20CA10CA00C83
:101D9400A80BC52E0130A8002808F507872F831249
:101DA40003132308803AFF002708803A7F02031DAB
:101DB400E52E26082202031DE52E25082102031D17
:101DC400E52E240820020318E82EE92E412FFF30C7
:101DD400A800FF30A900FF30AA00FF30AB002408A0
:101DE400AC002508AD002608AE002708AF00200887
:101DF400AC022108031C210F002F012FAD02220881
:101E0400031C220F062F072FAE022308031C230FE7
:101E14000C2F0D2FAF022C08A8072D0803182D0F27
:101E2400142F152FA9072E0803182E0F1A2F1B2F56
:101E3400AA072F0803182F0AAB072B08A3002A08A8
:101E4400A2002908A1002808A0008030A8002808C2
:101E5400F306F609F60A7608031D312F322F4F2FA9
:101E64000130A007003003180130A1070030031827
:101E74000130A207003003180130A3074F2F2408B4
:101E8400A0022508031C250FA1022608031C260F07
:101E9400A2022708031C270FA302230822042104FB
:101EA4002004031D562F572F832F7608031D5B2F05
:101EB4005C2F832F0030A3000030A2000030A1006B
:101EC4000030A000FF2F0130A8000310A00DA10DC9
:101ED400A20DA30DA80B672FF61F712F722F732F5E
:101EE4002014761C762F772F7A2F0314F60D7C2F6F
:101EF4000310F60D75080319802F812F832F0130ED
:101F0400F502A21F862F872F652FF401F61F8B2F52
:101F14008C2F9A2F76087F390319912F922F952FA2
:101F2400F401F40A9A2F201C982F992F9A2F922F9C
:101F3400740803199E2F9F2FD32F0130A007003060
:101F440003180130A107003003180130A207003044
:101F540003180130A307231CB02FB12FD32F20085F
:101F6400A8002108A9002208AA002308AB00013018
:101F7400AC002B0DAB0CAA0CA90CA80CAC0BBB2F02
:101F84002B08A3002A08A2002908A1002808A00001
:101F9400750A0319CE2FCF2FD32F0130A80028089C
:101FA400F507750A0319D72FD82FDD2F7508031DE0
:101FB400DC2FDD2FEB2F0030A3000030A200003017
:101FC400A1000030A0007508031DE92FEA2FEB2FB4
:101FD400F301751CEE2FEF2FF12FA217F52F7F3091
:101FE400A8002808A2057508A8000310280CA3005F
:0C1FF400F31FFD2FFE2FFF2FA317080086
:08400000FF3FFF3FFF3FFF3FC0
:04400E00D420FF3F7C
:00000001FF
