:060000000A128A110C280F
:10000800FE00030EF1000A08F2000A128A11A9285C
:100018000A128A110F280A128A1120210A128A113B
:10002800FA00F701F801F90183010A128A111C2864
:100038008316031788018901831603138501FF308E
:1000480086008701880183120313850186018701D1
:1000580088018316031387140715FF3092003F3079
:100068008312031397051708F0390C3897000F30DF
:100078009500CF3097051D129D128C100330920405
:1000880012158C1C4828492845288C108316031300
:100098008710071170308F040F1470300A128A11FC
:1000A80006210A128A118312031306185C285D2898
:1000B8007728FF308500FF30F7007A03031D652895
:1000C80066287928FA01FB3095000330F6008A305B
:1000D800F5005530F400F40B6F28F50B6F28F60B7C
:1000E8006F28762879288501F7017A08031D7D286D
:1000F8007E289828780A031D8228832898287C302F
:100108008312031395000130F4007408F8070330D4
:10011800F6008A30F5005530F400F40B9128F50B01
:100128009128F60B912898280330F6008A30F500BC
:100138005530F400F40B9E28F50B9E28F60B9E28EC
:10014800A52857280A128A110C28831203138C1D1C
:10015800AE28AF28FF281412141BB328B428B828D7
:10016800941FB728B828BD281308F900141394134E
:10017800141683160313941AC228C328DE281419E8
:10018800C628C728DE28831203131308F9008C1128
:10019800141683160313141CD228D328CD288312CF
:1001A80003131308F800780888005330F000F00BA8
:1001B800DB28FC28941AE128E228FC28141DE528ED
:1001C800E628FC28831203131308F9008316031387
:1001D8001410770883120313930014165330F00099
:1001E800F00BF428831603131418FB28FC28F628B0
:1001F800831203138C1172088A00710E8300FE0E9D
:100208007E0E0900F300730883160313930036303B
:100218008312031394008030831603139400013073
:100228009100871507168B170B17831203138C1170
:0A023800831603138C15080001342F
:08400000FF3FFF3FFF3FFF3FC0
:04400E00D520FF3F7B
:00000001FF
